{"project/contracts/LoanSyndication.sol":{"LiquidationEngine":{"abi":[{"inputs":[],"stateMutability":"nonpayable","type":"constructor"},{"anonymous":false,"inputs":[{"indexed":true,"internalType":"string","name":"docId","type":"string"},{"indexed":true,"internalType":"address","name":"signer","type":"address"},{"indexed":false,"internalType":"uint256","name":"totalSignatures","type":"uint256"}],"name":"DocumentSigned","type":"event"},{"anonymous":false,"inputs":[{"indexed":true,"internalType":"address","name":"recipient","type":"address"},{"indexed":false,"internalType":"uint256","name":"amount","type":"uint256"},{"indexed":false,"internalType":"uint256","name":"timestamp","type":"uint256"}],"name":"SharesSyndicated","type":"event"},{"inputs":[],"name":"TOTAL_PAR","outputs":[{"internalType":"uint256","name":"","type":"uint256"}],"stateMutability":"view","type":"function"},{"inputs":[{"internalType":"address","name":"","type":"address"}],"name":"assetBalances","outputs":[{"internalType":"uint256","name":"","type":"uint256"}],"stateMutability":"view","type":"function"},{"inputs":[{"internalType":"address","name":"account","type":"address"},{"internalType":"uint256","name":"","type":"uint256"}],"name":"balanceOf","outputs":[{"internalType":"uint256","name":"","type":"uint256"}],"stateMutability":"view","type":"function"},{"inputs":[{"internalType":"string","name":"","type":"string"},{"internalType":"address","name":"","type":"address"}],"name":"documentApprovals","outputs":[{"internalType":"bool","name":"","type":"bool"}],"stateMutability":"view","type":"function"},{"inputs":[{"internalType":"string","name":"docId","type":"string"}],"name":"getSignatureCount","outputs":[{"internalType":"uint256","name":"count","type":"uint256"}],"stateMutability":"view","type":"function"},{"inputs":[],"name":"leadBank","outputs":[{"internalType":"address","name":"","type":"address"}],"stateMutability":"view","type":"function"},{"inputs":[{"internalType":"string","name":"docId","type":"string"}],"name":"signVaultDocument","outputs":[],"stateMutability":"nonpayable","type":"function"},{"inputs":[{"internalType":"address","name":"partnerBank","type":"address"},{"internalType":"uint256","name":"amount","type":"uint256"}],"name":"syndicateShares","outputs":[],"stateMutability":"nonpayable","type":"function"}],"evm":{"bytecode":{"linkReferences":{},"object":"608060405234801561000f575f80fd5b505f80546001600160a01b0319163390811782558152600160205260409020629896809055610647806100415f395ff3fe608060405234801561000f575f80fd5b5060043610610084575f3560e01c8063867c124711610058578063867c12471461011a578063c6018cae14610139578063dd804b071461014c578063de1f5cb714610176575f80fd5b8062fdd58e146100885780630bc36ee0146100ae578063553cee63146100c35780635829bcf414610110575b5f80fd5b61009b61009636600461042c565b610189565b6040519081526020015b60405180910390f35b6100c16100bc366004610454565b6101a8565b005b6101006100d13660046104d4565b81516020818401810180516002825292820194820194909420919093529091525f908152604090205460ff1681565b60405190151581526020016100a5565b61009b6298968081565b61009b610128366004610590565b60016020525f908152604090205481565b61009b610147366004610454565b6102b9565b5f5461015e906001600160a01b031681565b6040516001600160a01b0390911681526020016100a5565b6100c161018436600461042c565b61030a565b6001600160a01b0382165f908152600160205260409020545b92915050565b600282826040516101ba9291906105b0565b9081526040805160209281900383019020335f908152925290205460ff161561022a5760405162461bcd60e51b815260206004820152601e60248201527f5661756c743a20446f63756d656e7420616c7265616479207369676e6564000060448201526064015b60405180910390fd5b60016002838360405161023e9291906105b0565b9081526040805160209281900383018120335f8181529190945291909120805460ff1916931515939093179092559061027a90849084906105b0565b60405190819003812060018252907f7ceee763b9e5cf8c302996d5dca9a814669e68b8106fbfaf20dd12c4de70e7029060200160405180910390a35050565b5f600283836040516102cc9291906105b0565b90815260408051602092819003830190205f80546001600160a01b03168152925290205460ff16156101a25780610302816105d3565b949350505050565b335f9081526001602052604090205481111561037b5760405162461bcd60e51b815260206004820152602a60248201527f42616c616e6365733a20496e73756666696369656e742073796e6469636174696044820152696f6e2062616c616e636560b01b6064820152608401610221565b335f90815260016020526040812080548392906103999084906105eb565b90915550506001600160a01b0382165f90815260016020526040812080548392906103c59084906105fe565b9091555050604080518281524260208201526001600160a01b038416917ff729d1bc00a0f15191809161511260dbf745297ddfecc6a5c20b25d0d0a511fe910160405180910390a25050565b80356001600160a01b0381168114610427575f80fd5b919050565b5f806040838503121561043d575f80fd5b61044683610411565b946020939093013593505050565b5f8060208385031215610465575f80fd5b823567ffffffffffffffff8082111561047c575f80fd5b818501915085601f83011261048f575f80fd5b81358181111561049d575f80fd5b8660208285010111156104ae575f80fd5b60209290920196919550909350505050565b634e487b7160e01b5f52604160045260245ffd5b5f80604083850312156104e5575f80fd5b823567ffffffffffffffff808211156104fc575f80fd5b818501915085601f83011261050f575f80fd5b813581811115610521576105216104c0565b604051601f8201601f19908116603f01168101908382118183101715610549576105496104c0565b81604052828152886020848701011115610561575f80fd5b826020860160208301375f60208483010152809650505050505061058760208401610411565b90509250929050565b5f602082840312156105a0575f80fd5b6105a982610411565b9392505050565b818382375f9101908152919050565b634e487b7160e01b5f52601160045260245ffd5b5f600182016105e4576105e46105bf565b5060010190565b818103818111156101a2576101a26105bf565b808201808211156101a2576101a26105bf56fea2646970667358221220828b3244f53c8ac97031189ea95faca4af6793e6fa5510c1729ddc6abcec8efb64736f6c63430008140033","opcodes":"PUSH1 0x80 PUSH1 0x40 MSTORE CALLVALUE DUP1 ISZERO PUSH2 0xF JUMPI PUSH0 DUP1 REVERT JUMPDEST POP PUSH0 DUP1 SLOAD PUSH1 0x1 PUSH1 0x1 PUSH1 0xA0 SHL SUB NOT AND CALLER SWAP1 DUP2 OR DUP3 SSTORE DUP2 MSTORE PUSH1 0x1 PUSH1 0x20 MSTORE PUSH1 0x40 SWAP1 KECCAK256 PUSH3 0x989680 SWAP1 SSTORE PUSH2 0x647 DUP1 PUSH2 0x41 PUSH0 CODECOPY PUSH0 RETURN INVALID PUSH1 0x80 PUSH1 0x40 MSTORE CALLVALUE DUP1 ISZERO PUSH2 0xF JUMPI PUSH0 DUP1 REVERT JUMPDEST POP PUSH1 0x4 CALLDATASIZE LT PUSH2 0x84 JUMPI PUSH0 CALLDATALOAD PUSH1 0xE0 SHR DUP1 PUSH4 0x867C1247 GT PUSH2 0x58 JUMPI DUP1 PUSH4 0x867C1247 EQ PUSH2 0x11A JUMPI DUP1 PUSH4 0xC6018CAE EQ PUSH2 0x139 JUMPI DUP1 PUSH4 0xDD804B07 EQ PUSH2 0x14C JUMPI DUP1 PUSH4 0xDE1F5CB7 EQ PUSH2 0x176 JUMPI PUSH0 DUP1 REVERT JUMPDEST DUP1 PUSH3 0xFDD58E EQ PUSH2 0x88 JUMPI DUP1 PUSH4 0xBC36EE0 EQ PUSH2 0xAE JUMPI DUP1 PUSH4 0x553CEE63 EQ PUSH2 0xC3 JUMPI DUP1 PUSH4 0x5829BCF4 EQ PUSH2 0x110 JUMPI JUMPDEST PUSH0 DUP1 REVERT JUMPDEST PUSH2 0x9B PUSH2 0x96 CALLDATASIZE PUSH1 0x4 PUSH2 0x42C JUMP JUMPDEST PUSH2 0x189 JUMP JUMPDEST PUSH1 0x40 MLOAD SWAP1 DUP2 MSTORE PUSH1 0x20 ADD JUMPDEST PUSH1 0x40 MLOAD DUP1 SWAP2 SUB SWAP1 RETURN JUMPDEST PUSH2 0xC1 PUSH2 0xBC CALLDATASIZE PUSH1 0x4 PUSH2 0x454 JUMP JUMPDEST PUSH2 0x1A8 JUMP JUMPDEST STOP JUMPDEST PUSH2 0x100 PUSH2 0xD1 CALLDATASIZE PUSH1 0x4 PUSH2 0x4D4 JUMP JUMPDEST DUP2 MLOAD PUSH1 0x20 DUP2 DUP5 ADD DUP2 ADD DUP1 MLOAD PUSH1 0x2 DUP3 MSTORE SWAP3 DUP3 ADD SWAP5 DUP3 ADD SWAP5 SWAP1 SWAP5 KECCAK256 SWAP2 SWAP1 SWAP4 MSTORE SWAP1 SWAP2 MSTORE PUSH0 SWAP1 DUP2 MSTORE PUSH1 0x40 SWAP1 KECCAK256 SLOAD PUSH1 0xFF AND DUP2 JUMP JUMPDEST PUSH1 0x40 MLOAD SWAP1 ISZERO ISZERO DUP2 MSTORE PUSH1 0x20 ADD PUSH2 0xA5 JUMP JUMPDEST PUSH2 0x9B PUSH3 0x989680 DUP2 JUMP JUMPDEST PUSH2 0x9B PUSH2 0x128 CALLDATASIZE PUSH1 0x4 PUSH2 0x590 JUMP JUMPDEST PUSH1 0x1 PUSH1 0x20 MSTORE PUSH0 SWAP1 DUP2 MSTORE PUSH1 0x40 SWAP1 KECCAK256 SLOAD DUP2 JUMP JUMPDEST PUSH2 0x9B PUSH2 0x147 CALLDATASIZE PUSH1 0x4 PUSH2 0x454 JUMP JUMPDEST PUSH2 0x2B9 JUMP JUMPDEST PUSH0 SLOAD PUSH2 0x15E SWAP1 PUSH1 0x1 PUSH1 0x1 PUSH1 0xA0 SHL SUB AND DUP2 JUMP JUMPDEST PUSH1 0x40 MLOAD PUSH1 0x1 PUSH1 0x1 PUSH1 0xA0 SHL SUB SWAP1 SWAP2 AND DUP2 MSTORE PUSH1 0x20 ADD PUSH2 0xA5 JUMP JUMPDEST PUSH2 0xC1 PUSH2 0x184 CALLDATASIZE PUSH1 0x4 PUSH2 0x42C JUMP JUMPDEST PUSH2 0x30A JUMP JUMPDEST PUSH1 0x1 PUSH1 0x1 PUSH1 0xA0 SHL SUB DUP3 AND PUSH0 SWAP1 DUP2 MSTORE PUSH1 0x1 PUSH1 0x20 MSTORE PUSH1 0x40 SWAP1 KECCAK256 SLOAD JUMPDEST SWAP3 SWAP2 POP POP JUMP JUMPDEST PUSH1 0x2 DUP3 DUP3 PUSH1 0x40 MLOAD PUSH2 0x1BA SWAP3 SWAP2 SWAP1 PUSH2 0x5B0 JUMP JUMPDEST SWAP1 DUP2 MSTORE PUSH1 0x40 DUP1 MLOAD PUSH1 0x20 SWAP3 DUP2 SWAP1 SUB DUP4 ADD SWAP1 KECCAK256 CALLER PUSH0 SWAP1 DUP2 MSTORE SWAP3 MSTORE SWAP1 KECCAK256 SLOAD PUSH1 0xFF AND ISZERO PUSH2 0x22A JUMPI PUSH1 0x40 MLOAD PUSH3 0x461BCD PUSH1 0xE5 SHL DUP2 MSTORE PUSH1 0x20 PUSH1 0x4 DUP3 ADD MSTORE PUSH1 0x1E PUSH1 0x24 DUP3 ADD MSTORE PUSH32 0x5661756C743A20446F63756D656E7420616C7265616479207369676E65640000 PUSH1 0x44 DUP3 ADD MSTORE PUSH1 0x64 ADD JUMPDEST PUSH1 0x40 MLOAD DUP1 SWAP2 SUB SWAP1 REVERT JUMPDEST PUSH1 0x1 PUSH1 0x2 DUP4 DUP4 PUSH1 0x40 MLOAD PUSH2 0x23E SWAP3 SWAP2 SWAP1 PUSH2 0x5B0 JUMP JUMPDEST SWAP1 DUP2 MSTORE PUSH1 0x40 DUP1 MLOAD PUSH1 0x20 SWAP3 DUP2 SWAP1 SUB DUP4 ADD DUP2 KECCAK256 CALLER PUSH0 DUP2 DUP2 MSTORE SWAP2 SWAP1 SWAP5 MSTORE SWAP2 SWAP1 SWAP2 KECCAK256 DUP1 SLOAD PUSH1 0xFF NOT AND SWAP4 ISZERO ISZERO SWAP4 SWAP1 SWAP4 OR SWAP1 SWAP3 SSTORE SWAP1 PUSH2 0x27A SWAP1 DUP5 SWAP1 DUP5 SWAP1 PUSH2 0x5B0 JUMP JUMPDEST PUSH1 0x40 MLOAD SWAP1 DUP2 SWAP1 SUB DUP2 KECCAK256 PUSH1 0x1 DUP3 MSTORE SWAP1 PUSH32 0x7CEEE763B9E5CF8C302996D5DCA9A814669E68B8106FBFAF20DD12C4DE70E702 SWAP1 PUSH1 0x20 ADD PUSH1 0x40 MLOAD DUP1 SWAP2 SUB SWAP1 LOG3 POP POP JUMP JUMPDEST PUSH0 PUSH1 0x2 DUP4 DUP4 PUSH1 0x40 MLOAD PUSH2 0x2CC SWAP3 SWAP2 SWAP1 PUSH2 0x5B0 JUMP JUMPDEST SWAP1 DUP2 MSTORE PUSH1 0x40 DUP1 MLOAD PUSH1 0x20 SWAP3 DUP2 SWAP1 SUB DUP4 ADD SWAP1 KECCAK256 PUSH0 DUP1 SLOAD PUSH1 0x1 PUSH1 0x1 PUSH1 0xA0 SHL SUB AND DUP2 MSTORE SWAP3 MSTORE SWAP1 KECCAK256 SLOAD PUSH1 0xFF AND ISZERO PUSH2 0x1A2 JUMPI DUP1 PUSH2 0x302 DUP2 PUSH2 0x5D3 JUMP JUMPDEST SWAP5 SWAP4 POP POP POP POP JUMP JUMPDEST CALLER PUSH0 SWAP1 DUP2 MSTORE PUSH1 0x1 PUSH1 0x20 MSTORE PUSH1 0x40 SWAP1 KECCAK256 SLOAD DUP2 GT ISZERO PUSH2 0x37B JUMPI PUSH1 0x40 MLOAD PUSH3 0x461BCD PUSH1 0xE5 SHL DUP2 MSTORE PUSH1 0x20 PUSH1 0x4 DUP3 ADD MSTORE PUSH1 0x2A PUSH1 0x24 DUP3 ADD MSTORE PUSH32 0x42616C616E6365733A20496E73756666696369656E742073796E646963617469 PUSH1 0x44 DUP3 ADD MSTORE PUSH10 0x6F6E2062616C616E6365 PUSH1 0xB0 SHL PUSH1 0x64 DUP3 ADD MSTORE PUSH1 0x84 ADD PUSH2 0x221 JUMP JUMPDEST CALLER PUSH0 SWAP1 DUP2 MSTORE PUSH1 0x1 PUSH1 0x20 MSTORE PUSH1 0x40 DUP2 KECCAK256 DUP1 SLOAD DUP4 SWAP3 SWAP1 PUSH2 0x399 SWAP1 DUP5 SWAP1 PUSH2 0x5EB JUMP JUMPDEST SWAP1 SWAP2 SSTORE POP POP PUSH1 0x1 PUSH1 0x1 PUSH1 0xA0 SHL SUB DUP3 AND PUSH0 SWAP1 DUP2 MSTORE PUSH1 0x1 PUSH1 0x20 MSTORE PUSH1 0x40 DUP2 KECCAK256 DUP1 SLOAD DUP4 SWAP3 SWAP1 PUSH2 0x3C5 SWAP1 DUP5 SWAP1 PUSH2 0x5FE JUMP JUMPDEST SWAP1 SWAP2 SSTORE POP POP PUSH1 0x40 DUP1 MLOAD DUP3 DUP2 MSTORE TIMESTAMP PUSH1 0x20 DUP3 ADD MSTORE PUSH1 0x1 PUSH1 0x1 PUSH1 0xA0 SHL SUB DUP5 AND SWAP2 PUSH32 0xF729D1BC00A0F15191809161511260DBF745297DDFECC6A5C20B25D0D0A511FE SWAP2 ADD PUSH1 0x40 MLOAD DUP1 SWAP2 SUB SWAP1 LOG2 POP POP JUMP JUMPDEST DUP1 CALLDATALOAD PUSH1 0x1 PUSH1 0x1 PUSH1 0xA0 SHL SUB DUP2 AND DUP2 EQ PUSH2 0x427 JUMPI PUSH0 DUP1 REVERT JUMPDEST SWAP2 SWAP1 POP JUMP JUMPDEST PUSH0 DUP1 PUSH1 0x40 DUP4 DUP6 SUB SLT ISZERO PUSH2 0x43D JUMPI PUSH0 DUP1 REVERT JUMPDEST PUSH2 0x446 DUP4 PUSH2 0x411 JUMP JUMPDEST SWAP5 PUSH1 0x20 SWAP4 SWAP1 SWAP4 ADD CALLDATALOAD SWAP4 POP POP POP JUMP JUMPDEST PUSH0 DUP1 PUSH1 0x20 DUP4 DUP6 SUB SLT ISZERO PUSH2 0x465 JUMPI PUSH0 DUP1 REVERT JUMPDEST DUP3 CALLDATALOAD PUSH8 0xFFFFFFFFFFFFFFFF DUP1 DUP3 GT ISZERO PUSH2 0x47C JUMPI PUSH0 DUP1 REVERT JUMPDEST DUP2 DUP6 ADD SWAP2 POP DUP6 PUSH1 0x1F DUP4 ADD SLT PUSH2 0x48F JUMPI PUSH0 DUP1 REVERT JUMPDEST DUP2 CALLDATALOAD DUP2 DUP2 GT ISZERO PUSH2 0x49D JUMPI PUSH0 DUP1 REVERT JUMPDEST DUP7 PUSH1 0x20 DUP3 DUP6 ADD ADD GT ISZERO PUSH2 0x4AE JUMPI PUSH0 DUP1 REVERT JUMPDEST PUSH1 0x20 SWAP3 SWAP1 SWAP3 ADD SWAP7 SWAP2 SWAP6 POP SWAP1 SWAP4 POP POP POP POP JUMP JUMPDEST PUSH4 0x4E487B71 PUSH1 0xE0 SHL PUSH0 MSTORE PUSH1 0x41 PUSH1 0x4 MSTORE PUSH1 0x24 PUSH0 REVERT JUMPDEST PUSH0 DUP1 PUSH1 0x40 DUP4 DUP6 SUB SLT ISZERO PUSH2 0x4E5 JUMPI PUSH0 DUP1 REVERT JUMPDEST DUP3 CALLDATALOAD PUSH8 0xFFFFFFFFFFFFFFFF DUP1 DUP3 GT ISZERO PUSH2 0x4FC JUMPI PUSH0 DUP1 REVERT JUMPDEST DUP2 DUP6 ADD SWAP2 POP DUP6 PUSH1 0x1F DUP4 ADD SLT PUSH2 0x50F JUMPI PUSH0 DUP1 REVERT JUMPDEST DUP2 CALLDATALOAD DUP2 DUP2 GT ISZERO PUSH2 0x521 JUMPI PUSH2 0x521 PUSH2 0x4C0 JUMP JUMPDEST PUSH1 0x40 MLOAD PUSH1 0x1F DUP3 ADD PUSH1 0x1F NOT SWAP1 DUP2 AND PUSH1 0x3F ADD AND DUP2 ADD SWAP1 DUP4 DUP3 GT DUP2 DUP4 LT OR ISZERO PUSH2 0x549 JUMPI PUSH2 0x549 PUSH2 0x4C0 JUMP JUMPDEST DUP2 PUSH1 0x40 MSTORE DUP3 DUP2 MSTORE DUP9 PUSH1 0x20 DUP5 DUP8 ADD ADD GT ISZERO PUSH2 0x561 JUMPI PUSH0 DUP1 REVERT JUMPDEST DUP3 PUSH1 0x20 DUP7 ADD PUSH1 0x20 DUP4 ADD CALLDATACOPY PUSH0 PUSH1 0x20 DUP5 DUP4 ADD ADD MSTORE DUP1 SWAP7 POP POP POP POP POP POP PUSH2 0x587 PUSH1 0x20 DUP5 ADD PUSH2 0x411 JUMP JUMPDEST SWAP1 POP SWAP3 POP SWAP3 SWAP1 POP JUMP JUMPDEST PUSH0 PUSH1 0x20 DUP3 DUP5 SUB SLT ISZERO PUSH2 0x5A0 JUMPI PUSH0 DUP1 REVERT JUMPDEST PUSH2 0x5A9 DUP3 PUSH2 0x411 JUMP JUMPDEST SWAP4 SWAP3 POP POP POP JUMP JUMPDEST DUP2 DUP4 DUP3 CALLDATACOPY PUSH0 SWAP2 ADD SWAP1 DUP2 MSTORE SWAP2 SWAP1 POP JUMP JUMPDEST PUSH4 0x4E487B71 PUSH1 0xE0 SHL PUSH0 MSTORE PUSH1 0x11 PUSH1 0x4 MSTORE PUSH1 0x24 PUSH0 REVERT JUMPDEST PUSH0 PUSH1 0x1 DUP3 ADD PUSH2 0x5E4 JUMPI PUSH2 0x5E4 PUSH2 0x5BF JUMP JUMPDEST POP PUSH1 0x1 ADD SWAP1 JUMP JUMPDEST DUP2 DUP2 SUB DUP2 DUP2 GT ISZERO PUSH2 0x1A2 JUMPI PUSH2 0x1A2 PUSH2 0x5BF JUMP JUMPDEST DUP1 DUP3 ADD DUP1 DUP3 GT ISZERO PUSH2 0x1A2 JUMPI PUSH2 0x1A2 PUSH2 0x5BF JUMP INVALID LOG2 PUSH5 0x6970667358 0x22 SLT KECCAK256 DUP3 DUP12 ORIGIN PREVRANDAO CREATE2 EXTCODECOPY DUP11 0xC9 PUSH17 0x31189EA95FACA4AF6793E6FA5510C1729D 0xDC PUSH11 0xBCEC8EFB64736F6C634300 ADDMOD EQ STOP CALLER "},"methodIdentifiers":{"TOTAL_PAR()":"5829bcf4","assetBalances(address)":"867c1247","balanceOf(address,uint256)":"00fdd58e","documentApprovals(string,address)":"553cee63","getSignatureCount(string)":"c6018cae","leadBank()":"dd804b07","signVaultDocument(string)":"0bc36ee0","syndicateShares(address,uint256)":"de1f5cb7"}}}}}